{
  "_format": "hh-sol-artifact-1",
  "contractName": "FastFoodMoonbirds",
  "sourceName": "contracts/FastFoodMoonbirds.sol",
  "abi": [
    {
      "inputs": [
        {
          "internalType": "string",
          "name": "baseURI",
          "type": "string"
        }
      ],
      "stateMutability": "nonpayable",
      "type": "constructor"
    },
    {
      "anonymous": false,
      "inputs": [
        {
          "indexed": true,
          "internalType": "address",
          "name": "owner",
          "type": "address"
        },
        {
          "indexed": true,
          "internalType": "address",
          "name": "approved",
          "type": "address"
        },
        {
          "indexed": true,
          "internalType": "uint256",
          "name": "tokenId",
          "type": "uint256"
        }
      ],
      "name": "Approval",
      "type": "event"
    },
    {
      "anonymous": false,
      "inputs": [
        {
          "indexed": true,
          "internalType": "address",
          "name": "owner",
          "type": "address"
        },
        {
          "indexed": true,
          "internalType": "address",
          "name": "operator",
          "type": "address"
        },
        {
          "indexed": false,
          "internalType": "bool",
          "name": "approved",
          "type": "bool"
        }
      ],
      "name": "ApprovalForAll",
      "type": "event"
    },
    {
      "anonymous": false,
      "inputs": [
        {
          "indexed": true,
          "internalType": "address",
          "name": "previousOwner",
          "type": "address"
        },
        {
          "indexed": true,
          "internalType": "address",
          "name": "newOwner",
          "type": "address"
        }
      ],
      "name": "OwnershipTransferred",
      "type": "event"
    },
    {
      "anonymous": false,
      "inputs": [
        {
          "indexed": true,
          "internalType": "address",
          "name": "from",
          "type": "address"
        },
        {
          "indexed": true,
          "internalType": "address",
          "name": "to",
          "type": "address"
        },
        {
          "indexed": true,
          "internalType": "uint256",
          "name": "tokenId",
          "type": "uint256"
        }
      ],
      "name": "Transfer",
      "type": "event"
    },
    {
      "inputs": [],
      "name": "FREE_MINT_QTY",
      "outputs": [
        {
          "internalType": "uint256",
          "name": "",
          "type": "uint256"
        }
      ],
      "stateMutability": "view",
      "type": "function"
    },
    {
      "inputs": [],
      "name": "MAX_PER_MINT",
      "outputs": [
        {
          "internalType": "uint256",
          "name": "",
          "type": "uint256"
        }
      ],
      "stateMutability": "view",
      "type": "function"
    },
    {
      "inputs": [],
      "name": "MAX_SUPPLY",
      "outputs": [
        {
          "internalType": "uint256",
          "name": "",
          "type": "uint256"
        }
      ],
      "stateMutability": "view",
      "type": "function"
    },
    {
      "inputs": [],
      "name": "PRICE",
      "outputs": [
        {
          "internalType": "uint256",
          "name": "",
          "type": "uint256"
        }
      ],
      "stateMutability": "view",
      "type": "function"
    },
    {
      "inputs": [
        {
          "internalType": "address",
          "name": "to",
          "type": "address"
        },
        {
          "internalType": "uint256",
          "name": "tokenId",
          "type": "uint256"
        }
      ],
      "name": "approve",
      "outputs": [],
      "stateMutability": "nonpayable",
      "type": "function"
    },
    {
      "inputs": [
        {
          "internalType": "address",
          "name": "owner",
          "type": "address"
        }
      ],
      "name": "balanceOf",
      "outputs": [
        {
          "internalType": "uint256",
          "name": "",
          "type": "uint256"
        }
      ],
      "stateMutability": "view",
      "type": "function"
    },
    {
      "inputs": [],
      "name": "baseTokenURI",
      "outputs": [
        {
          "internalType": "string",
          "name": "",
          "type": "string"
        }
      ],
      "stateMutability": "view",
      "type": "function"
    },
    {
      "inputs": [
        {
          "internalType": "uint256",
          "name": "tokenId",
          "type": "uint256"
        }
      ],
      "name": "getApproved",
      "outputs": [
        {
          "internalType": "address",
          "name": "",
          "type": "address"
        }
      ],
      "stateMutability": "view",
      "type": "function"
    },
    {
      "inputs": [
        {
          "internalType": "address",
          "name": "owner",
          "type": "address"
        },
        {
          "internalType": "address",
          "name": "operator",
          "type": "address"
        }
      ],
      "name": "isApprovedForAll",
      "outputs": [
        {
          "internalType": "bool",
          "name": "",
          "type": "bool"
        }
      ],
      "stateMutability": "view",
      "type": "function"
    },
    {
      "inputs": [
        {
          "internalType": "uint256",
          "name": "_mintQty",
          "type": "uint256"
        }
      ],
      "name": "mint",
      "outputs": [],
      "stateMutability": "payable",
      "type": "function"
    },
    {
      "inputs": [],
      "name": "name",
      "outputs": [
        {
          "internalType": "string",
          "name": "",
          "type": "string"
        }
      ],
      "stateMutability": "view",
      "type": "function"
    },
    {
      "inputs": [],
      "name": "owner",
      "outputs": [
        {
          "internalType": "address",
          "name": "",
          "type": "address"
        }
      ],
      "stateMutability": "view",
      "type": "function"
    },
    {
      "inputs": [
        {
          "internalType": "uint256",
          "name": "tokenId",
          "type": "uint256"
        }
      ],
      "name": "ownerOf",
      "outputs": [
        {
          "internalType": "address",
          "name": "",
          "type": "address"
        }
      ],
      "stateMutability": "view",
      "type": "function"
    },
    {
      "inputs": [],
      "name": "renounceOwnership",
      "outputs": [],
      "stateMutability": "nonpayable",
      "type": "function"
    },
    {
      "inputs": [],
      "name": "reserveNFTs",
      "outputs": [],
      "stateMutability": "nonpayable",
      "type": "function"
    },
    {
      "inputs": [
        {
          "internalType": "address",
          "name": "from",
          "type": "address"
        },
        {
          "internalType": "address",
          "name": "to",
          "type": "address"
        },
        {
          "internalType": "uint256",
          "name": "tokenId",
          "type": "uint256"
        }
      ],
      "name": "safeTransferFrom",
      "outputs": [],
      "stateMutability": "nonpayable",
      "type": "function"
    },
    {
      "inputs": [
        {
          "internalType": "address",
          "name": "from",
          "type": "address"
        },
        {
          "internalType": "address",
          "name": "to",
          "type": "address"
        },
        {
          "internalType": "uint256",
          "name": "tokenId",
          "type": "uint256"
        },
        {
          "internalType": "bytes",
          "name": "_data",
          "type": "bytes"
        }
      ],
      "name": "safeTransferFrom",
      "outputs": [],
      "stateMutability": "nonpayable",
      "type": "function"
    },
    {
      "inputs": [
        {
          "internalType": "address",
          "name": "operator",
          "type": "address"
        },
        {
          "internalType": "bool",
          "name": "approved",
          "type": "bool"
        }
      ],
      "name": "setApprovalForAll",
      "outputs": [],
      "stateMutability": "nonpayable",
      "type": "function"
    },
    {
      "inputs": [
        {
          "internalType": "string",
          "name": "_baseTokenURI",
          "type": "string"
        }
      ],
      "name": "setBaseURI",
      "outputs": [],
      "stateMutability": "nonpayable",
      "type": "function"
    },
    {
      "inputs": [
        {
          "internalType": "bytes4",
          "name": "interfaceId",
          "type": "bytes4"
        }
      ],
      "name": "supportsInterface",
      "outputs": [
        {
          "internalType": "bool",
          "name": "",
          "type": "bool"
        }
      ],
      "stateMutability": "view",
      "type": "function"
    },
    {
      "inputs": [],
      "name": "symbol",
      "outputs": [
        {
          "internalType": "string",
          "name": "",
          "type": "string"
        }
      ],
      "stateMutability": "view",
      "type": "function"
    },
    {
      "inputs": [
        {
          "internalType": "uint256",
          "name": "index",
          "type": "uint256"
        }
      ],
      "name": "tokenByIndex",
      "outputs": [
        {
          "internalType": "uint256",
          "name": "",
          "type": "uint256"
        }
      ],
      "stateMutability": "view",
      "type": "function"
    },
    {
      "inputs": [
        {
          "internalType": "address",
          "name": "owner",
          "type": "address"
        },
        {
          "internalType": "uint256",
          "name": "index",
          "type": "uint256"
        }
      ],
      "name": "tokenOfOwnerByIndex",
      "outputs": [
        {
          "internalType": "uint256",
          "name": "",
          "type": "uint256"
        }
      ],
      "stateMutability": "view",
      "type": "function"
    },
    {
      "inputs": [
        {
          "internalType": "uint256",
          "name": "tokenId",
          "type": "uint256"
        }
      ],
      "name": "tokenURI",
      "outputs": [
        {
          "internalType": "string",
          "name": "",
          "type": "string"
        }
      ],
      "stateMutability": "view",
      "type": "function"
    },
    {
      "inputs": [
        {
          "internalType": "address",
          "name": "_owner",
          "type": "address"
        }
      ],
      "name": "tokensOfOwner",
      "outputs": [
        {
          "internalType": "uint256[]",
          "name": "",
          "type": "uint256[]"
        }
      ],
      "stateMutability": "view",
      "type": "function"
    },
    {
      "inputs": [],
      "name": "totalSupply",
      "outputs": [
        {
          "internalType": "uint256",
          "name": "",
          "type": "uint256"
        }
      ],
      "stateMutability": "view",
      "type": "function"
    },
    {
      "inputs": [
        {
          "internalType": "address",
          "name": "from",
          "type": "address"
        },
        {
          "internalType": "address",
          "name": "to",
          "type": "address"
        },
        {
          "internalType": "uint256",
          "name": "tokenId",
          "type": "uint256"
        }
      ],
      "name": "transferFrom",
      "outputs": [],
      "stateMutability": "nonpayable",
      "type": "function"
    },
    {
      "inputs": [
        {
          "internalType": "address",
          "name": "newOwner",
          "type": "address"
        }
      ],
      "name": "transferOwnership",
      "outputs": [],
      "stateMutability": "nonpayable",
      "type": "function"
    },
    {
      "inputs": [],
      "name": "withdraw",
      "outputs": [],
      "stateMutability": "payable",
      "type": "function"
    }
  ],
  "bytecode": "0x60806040523480156200001157600080fd5b50604051620049e8380380620049e88339818101604052810190620000379190620003d4565b6040518060400160405280601381526020017f4661737420466f6f64204d6f6f6e6269726473000000000000000000000000008152506040518060400160405280600481526020017f46464d42000000000000000000000000000000000000000000000000000000008152508160009080519060200190620000bb929190620002b2565b508060019080519060200190620000d4929190620002b2565b505050620000f7620000eb6200010f60201b60201c565b6200011760201b60201c565b6200010881620001dd60201b60201c565b506200060c565b600033905090565b6000600a60009054906101000a900473ffffffffffffffffffffffffffffffffffffffff16905081600a60006101000a81548173ffffffffffffffffffffffffffffffffffffffff021916908373ffffffffffffffffffffffffffffffffffffffff1602179055508173ffffffffffffffffffffffffffffffffffffffff168173ffffffffffffffffffffffffffffffffffffffff167f8be0079c531659141344cd1fd0a4f28419497f9722a3daafe3b4186f6b6457e060405160405180910390a35050565b620001ed6200010f60201b60201c565b73ffffffffffffffffffffffffffffffffffffffff16620002136200028860201b60201c565b73ffffffffffffffffffffffffffffffffffffffff16146200026c576040517f08c379a0000000000000000000000000000000000000000000000000000000008152600401620002639062000440565b60405180910390fd5b80600c908051906020019062000284929190620002b2565b5050565b6000600a60009054906101000a900473ffffffffffffffffffffffffffffffffffffffff16905090565b828054620002c09062000508565b90600052602060002090601f016020900481019282620002e4576000855562000330565b82601f10620002ff57805160ff191683800117855562000330565b8280016001018555821562000330579182015b828111156200032f57825182559160200191906001019062000312565b5b5090506200033f919062000343565b5090565b5b808211156200035e57600081600090555060010162000344565b5090565b60006200037962000373846200048b565b62000462565b9050828152602081018484840111156200039257600080fd5b6200039f848285620004d2565b509392505050565b600082601f830112620003b957600080fd5b8151620003cb84826020860162000362565b91505092915050565b600060208284031215620003e757600080fd5b600082015167ffffffffffffffff8111156200040257600080fd5b6200041084828501620003a7565b91505092915050565b600062000428602083620004c1565b91506200043582620005e3565b602082019050919050565b600060208201905081810360008301526200045b8162000419565b9050919050565b60006200046e62000481565b90506200047c82826200053e565b919050565b6000604051905090565b600067ffffffffffffffff821115620004a957620004a8620005a3565b5b620004b482620005d2565b9050602081019050919050565b600082825260208201905092915050565b60005b83811015620004f2578082015181840152602081019050620004d5565b8381111562000502576000848401525b50505050565b600060028204905060018216806200052157607f821691505b6020821081141562000538576200053762000574565b5b50919050565b6200054982620005d2565b810181811067ffffffffffffffff821117156200056b576200056a620005a3565b5b80604052505050565b7f4e487b7100000000000000000000000000000000000000000000000000000000600052602260045260246000fd5b7f4e487b7100000000000000000000000000000000000000000000000000000000600052604160045260246000fd5b6000601f19601f8301169050919050565b7f4f776e61626c653a2063616c6c6572206973206e6f7420746865206f776e6572600082015250565b6143cc806200061c6000396000f3fe6080604052600436106101c25760003560e01c80636352211e116100f7578063a0712d6811610095578063d547cfb711610064578063d547cfb714610626578063e985e9c514610651578063f2fde38b1461068e578063fccde6b3146106b7576101c2565b8063a0712d681461057b578063a22cb46514610597578063b88d4fde146105c0578063c87b56dd146105e9576101c2565b80638462151c116100d15780638462151c146104bd5780638d859f3e146104fa5780638da5cb5b1461052557806395d89b4114610550576101c2565b80636352211e1461042c57806370a0823114610469578063715018a6146104a6576101c2565b806323b872dd116101645780633ccfd60b1161013e5780633ccfd60b1461039357806342842e0e1461039d5780634f6ccce7146103c657806355f804b314610403576101c2565b806323b872dd146103025780632f745c591461032b57806332cb6b0c14610368576101c2565b8063095ea7b3116101a0578063095ea7b31461026c57806309d42b3014610295578063144100c7146102c057806318160ddd146102d7576101c2565b806301ffc9a7146101c757806306fdde0314610204578063081812fc1461022f575b600080fd5b3480156101d357600080fd5b506101ee60048036038101906101e99190612e7a565b6106e2565b6040516101fb91906134db565b60405180910390f35b34801561021057600080fd5b5061021961075c565b60405161022691906134f6565b60405180910390f35b34801561023b57600080fd5b5061025660048036038101906102519190612f0d565b6107ee565b6040516102639190613452565b60405180910390f35b34801561027857600080fd5b50610293600480360381019061028e9190612e3e565b610873565b005b3480156102a157600080fd5b506102aa61098b565b6040516102b79190613838565b60405180910390f35b3480156102cc57600080fd5b506102d5610990565b005b3480156102e357600080fd5b506102ec610a9c565b6040516102f99190613838565b60405180910390f35b34801561030e57600080fd5b5061032960048036038101906103249190612d38565b610aa9565b005b34801561033757600080fd5b50610352600480360381019061034d9190612e3e565b610b09565b60405161035f9190613838565b60405180910390f35b34801561037457600080fd5b5061037d610bae565b60405161038a9190613838565b60405180910390f35b61039b610bb4565b005b3480156103a957600080fd5b506103c460048036038101906103bf9190612d38565b610d28565b005b3480156103d257600080fd5b506103ed60048036038101906103e89190612f0d565b610d48565b6040516103fa9190613838565b60405180910390f35b34801561040f57600080fd5b5061042a60048036038101906104259190612ecc565b610ddf565b005b34801561043857600080fd5b50610453600480360381019061044e9190612f0d565b610e75565b6040516104609190613452565b60405180910390f35b34801561047557600080fd5b50610490600480360381019061048b9190612cd3565b610f27565b60405161049d9190613838565b60405180910390f35b3480156104b257600080fd5b506104bb610fdf565b005b3480156104c957600080fd5b506104e460048036038101906104df9190612cd3565b611067565b6040516104f191906134b9565b60405180910390f35b34801561050657600080fd5b5061050f611161565b60405161051c9190613838565b60405180910390f35b34801561053157600080fd5b5061053a61116c565b6040516105479190613452565b60405180910390f35b34801561055c57600080fd5b50610565611196565b60405161057291906134f6565b60405180910390f35b61059560048036038101906105909190612f0d565b611228565b005b3480156105a357600080fd5b506105be60048036038101906105b99190612e02565b611414565b005b3480156105cc57600080fd5b506105e760048036038101906105e29190612d87565b61142a565b005b3480156105f557600080fd5b50610610600480360381019061060b9190612f0d565b61148c565b60405161061d91906134f6565b60405180910390f35b34801561063257600080fd5b5061063b611533565b60405161064891906134f6565b60405180910390f35b34801561065d57600080fd5b5061067860048036038101906106739190612cfc565b6115c1565b60405161068591906134db565b60405180910390f35b34801561069a57600080fd5b506106b560048036038101906106b09190612cd3565b611655565b005b3480156106c357600080fd5b506106cc61174d565b6040516106d99190613838565b60405180910390f35b60007f780e9d63000000000000000000000000000000000000000000000000000000007bffffffffffffffffffffffffffffffffffffffffffffffffffffffff1916827bffffffffffffffffffffffffffffffffffffffffffffffffffffffff19161480610755575061075482611753565b5b9050919050565b60606000805461076b90613b2c565b80601f016020809104026020016040519081016040528092919081815260200182805461079790613b2c565b80156107e45780601f106107b9576101008083540402835291602001916107e4565b820191906000526020600020905b8154815290600101906020018083116107c757829003601f168201915b5050505050905090565b60006107f982611835565b610838576040517f08c379a000000000000000000000000000000000000000000000000000000000815260040161082f90613718565b60405180910390fd5b6004600083815260200190815260200160002060009054906101000a900473ffffffffffffffffffffffffffffffffffffffff169050919050565b600061087e82610e75565b90508073ffffffffffffffffffffffffffffffffffffffff168373ffffffffffffffffffffffffffffffffffffffff1614156108ef576040517f08c379a00000000000000000000000000000000000000000000000000000000081526004016108e6906137b8565b60405180910390fd5b8073ffffffffffffffffffffffffffffffffffffffff1661090e6118a1565b73ffffffffffffffffffffffffffffffffffffffff16148061093d575061093c816109376118a1565b6115c1565b5b61097c576040517f08c379a000000000000000000000000000000000000000000000000000000000815260040161097390613658565b60405180910390fd5b61098683836118a9565b505050565b600581565b6109986118a1565b73ffffffffffffffffffffffffffffffffffffffff166109b661116c565b73ffffffffffffffffffffffffffffffffffffffff1614610a0c576040517f08c379a0000000000000000000000000000000000000000000000000000000008152600401610a0390613738565b60405180910390fd5b6000610a18600b611962565b9050610fa0610a31600a8361197090919063ffffffff16565b10610a71576040517f08c379a0000000000000000000000000000000000000000000000000000000008152600401610a68906136b8565b60405180910390fd5b60005b600a811015610a9857610a85611986565b8080610a9090613b8f565b915050610a74565b5050565b6000600880549050905090565b610aba610ab46118a1565b826119ab565b610af9576040517f08c379a0000000000000000000000000000000000000000000000000000000008152600401610af0906137f8565b60405180910390fd5b610b04838383611a89565b505050565b6000610b1483610f27565b8210610b55576040517f08c379a0000000000000000000000000000000000000000000000000000000008152600401610b4c90613518565b60405180910390fd5b600660008473ffffffffffffffffffffffffffffffffffffffff1673ffffffffffffffffffffffffffffffffffffffff168152602001908152602001600020600083815260200190815260200160002054905092915050565b610fa081565b610bbc6118a1565b73ffffffffffffffffffffffffffffffffffffffff16610bda61116c565b73ffffffffffffffffffffffffffffffffffffffff1614610c30576040517f08c379a0000000000000000000000000000000000000000000000000000000008152600401610c2790613738565b60405180910390fd5b600047905060008111610c78576040517f08c379a0000000000000000000000000000000000000000000000000000000008152600401610c6f906136f8565b60405180910390fd5b60003373ffffffffffffffffffffffffffffffffffffffff1682604051610c9e9061343d565b60006040518083038185875af1925050503d8060008114610cdb576040519150601f19603f3d011682016040523d82523d6000602084013e610ce0565b606091505b5050905080610d24576040517f08c379a0000000000000000000000000000000000000000000000000000000008152600401610d1b906137d8565b60405180910390fd5b5050565b610d438383836040518060200160405280600081525061142a565b505050565b6000610d52610a9c565b8210610d93576040517f08c379a0000000000000000000000000000000000000000000000000000000008152600401610d8a90613818565b60405180910390fd5b60088281548110610dcd577f4e487b7100000000000000000000000000000000000000000000000000000000600052603260045260246000fd5b90600052602060002001549050919050565b610de76118a1565b73ffffffffffffffffffffffffffffffffffffffff16610e0561116c565b73ffffffffffffffffffffffffffffffffffffffff1614610e5b576040517f08c379a0000000000000000000000000000000000000000000000000000000008152600401610e5290613738565b60405180910390fd5b80600c9080519060200190610e71929190612af7565b5050565b6000806002600084815260200190815260200160002060009054906101000a900473ffffffffffffffffffffffffffffffffffffffff169050600073ffffffffffffffffffffffffffffffffffffffff168173ffffffffffffffffffffffffffffffffffffffff161415610f1e576040517f08c379a0000000000000000000000000000000000000000000000000000000008152600401610f1590613698565b60405180910390fd5b80915050919050565b60008073ffffffffffffffffffffffffffffffffffffffff168273ffffffffffffffffffffffffffffffffffffffff161415610f98576040517f08c379a0000000000000000000000000000000000000000000000000000000008152600401610f8f90613678565b60405180910390fd5b600360008373ffffffffffffffffffffffffffffffffffffffff1673ffffffffffffffffffffffffffffffffffffffff168152602001908152602001600020549050919050565b610fe76118a1565b73ffffffffffffffffffffffffffffffffffffffff1661100561116c565b73ffffffffffffffffffffffffffffffffffffffff161461105b576040517f08c379a000000000000000000000000000000000000000000000000000000000815260040161105290613738565b60405180910390fd5b6110656000611cf0565b565b6060600061107483610f27565b905060008167ffffffffffffffff8111156110b8577f4e487b7100000000000000000000000000000000000000000000000000000000600052604160045260246000fd5b6040519080825280602002602001820160405280156110e65781602001602082028036833780820191505090505b50905060005b82811015611156576110fe8582610b09565b828281518110611137577f4e487b7100000000000000000000000000000000000000000000000000000000600052603260045260246000fd5b602002602001018181525050808061114e90613b8f565b9150506110ec565b508092505050919050565b662386f26fc1000081565b6000600a60009054906101000a900473ffffffffffffffffffffffffffffffffffffffff16905090565b6060600180546111a590613b2c565b80601f01602080910402602001604051908101604052809291908181526020018280546111d190613b2c565b801561121e5780601f106111f35761010080835404028352916020019161121e565b820191906000526020600020905b81548152906001019060200180831161120157829003601f168201915b5050505050905090565b6000611234600b611962565b90506103e88110156112e5576103e8828261124f9190613961565b1115611290576040517f08c379a000000000000000000000000000000000000000000000000000000000815260040161128790613778565b60405180910390fd5b6000821180156112a1575060058211155b6112e0576040517f08c379a00000000000000000000000000000000000000000000000000000000081526004016112d790613798565b60405180910390fd5b6113e9565b610fa06112fb838361197090919063ffffffff16565b111561133c576040517f08c379a000000000000000000000000000000000000000000000000000000000815260040161133390613618565b60405180910390fd5b60008211801561134d575060058211155b61138c576040517f08c379a000000000000000000000000000000000000000000000000000000000815260040161138390613798565b60405180910390fd5b6113a682662386f26fc10000611db690919063ffffffff16565b3410156113e8576040517f08c379a00000000000000000000000000000000000000000000000000000000081526004016113df906135f8565b60405180910390fd5b5b60005b8281101561140f576113fc611986565b808061140790613b8f565b9150506113ec565b505050565b61142661141f6118a1565b8383611dcc565b5050565b61143b6114356118a1565b836119ab565b61147a576040517f08c379a0000000000000000000000000000000000000000000000000000000008152600401611471906137f8565b60405180910390fd5b61148684848484611f39565b50505050565b606061149782611835565b6114d6576040517f08c379a00000000000000000000000000000000000000000000000000000000081526004016114cd90613758565b60405180910390fd5b60006114e0611f95565b90506000815111611500576040518060200160405280600081525061152b565b8061150a84612027565b60405160200161151b929190613419565b6040516020818303038152906040525b915050919050565b600c805461154090613b2c565b80601f016020809104026020016040519081016040528092919081815260200182805461156c90613b2c565b80156115b95780601f1061158e576101008083540402835291602001916115b9565b820191906000526020600020905b81548152906001019060200180831161159c57829003601f168201915b505050505081565b6000600560008473ffffffffffffffffffffffffffffffffffffffff1673ffffffffffffffffffffffffffffffffffffffff16815260200190815260200160002060008373ffffffffffffffffffffffffffffffffffffffff1673ffffffffffffffffffffffffffffffffffffffff16815260200190815260200160002060009054906101000a900460ff16905092915050565b61165d6118a1565b73ffffffffffffffffffffffffffffffffffffffff1661167b61116c565b73ffffffffffffffffffffffffffffffffffffffff16146116d1576040517f08c379a00000000000000000000000000000000000000000000000000000000081526004016116c890613738565b60405180910390fd5b600073ffffffffffffffffffffffffffffffffffffffff168173ffffffffffffffffffffffffffffffffffffffff161415611741576040517f08c379a000000000000000000000000000000000000000000000000000000000815260040161173890613558565b60405180910390fd5b61174a81611cf0565b50565b6103e881565b60007f80ac58cd000000000000000000000000000000000000000000000000000000007bffffffffffffffffffffffffffffffffffffffffffffffffffffffff1916827bffffffffffffffffffffffffffffffffffffffffffffffffffffffff1916148061181e57507f5b5e139f000000000000000000000000000000000000000000000000000000007bffffffffffffffffffffffffffffffffffffffffffffffffffffffff1916827bffffffffffffffffffffffffffffffffffffffffffffffffffffffff1916145b8061182e575061182d826121d4565b5b9050919050565b60008073ffffffffffffffffffffffffffffffffffffffff166002600084815260200190815260200160002060009054906101000a900473ffffffffffffffffffffffffffffffffffffffff1673ffffffffffffffffffffffffffffffffffffffff1614159050919050565b600033905090565b816004600083815260200190815260200160002060006101000a81548173ffffffffffffffffffffffffffffffffffffffff021916908373ffffffffffffffffffffffffffffffffffffffff160217905550808273ffffffffffffffffffffffffffffffffffffffff1661191c83610e75565b73ffffffffffffffffffffffffffffffffffffffff167f8c5be1e5ebec7d5bd14f71427d1e84f3dd0314c0f7b2291e5b200ac8c7c3b92560405160405180910390a45050565b600081600001549050919050565b6000818361197e9190613961565b905092915050565b6000611992600b611962565b905061199e338261223e565b6119a8600b61225c565b50565b60006119b682611835565b6119f5576040517f08c379a00000000000000000000000000000000000000000000000000000000081526004016119ec90613638565b60405180910390fd5b6000611a0083610e75565b90508073ffffffffffffffffffffffffffffffffffffffff168473ffffffffffffffffffffffffffffffffffffffff161480611a6f57508373ffffffffffffffffffffffffffffffffffffffff16611a57846107ee565b73ffffffffffffffffffffffffffffffffffffffff16145b80611a805750611a7f81856115c1565b5b91505092915050565b8273ffffffffffffffffffffffffffffffffffffffff16611aa982610e75565b73ffffffffffffffffffffffffffffffffffffffff1614611aff576040517f08c379a0000000000000000000000000000000000000000000000000000000008152600401611af690613578565b60405180910390fd5b600073ffffffffffffffffffffffffffffffffffffffff168273ffffffffffffffffffffffffffffffffffffffff161415611b6f576040517f08c379a0000000000000000000000000000000000000000000000000000000008152600401611b66906135b8565b60405180910390fd5b611b7a838383612272565b611b856000826118a9565b6001600360008573ffffffffffffffffffffffffffffffffffffffff1673ffffffffffffffffffffffffffffffffffffffff1681526020019081526020016000206000828254611bd59190613a42565b925050819055506001600360008473ffffffffffffffffffffffffffffffffffffffff1673ffffffffffffffffffffffffffffffffffffffff1681526020019081526020016000206000828254611c2c9190613961565b92505081905550816002600083815260200190815260200160002060006101000a81548173ffffffffffffffffffffffffffffffffffffffff021916908373ffffffffffffffffffffffffffffffffffffffff160217905550808273ffffffffffffffffffffffffffffffffffffffff168473ffffffffffffffffffffffffffffffffffffffff167fddf252ad1be2c89b69c2b068fc378daa952ba7f163c4a11628f55a4df523b3ef60405160405180910390a4611ceb838383612386565b505050565b6000600a60009054906101000a900473ffffffffffffffffffffffffffffffffffffffff16905081600a60006101000a81548173ffffffffffffffffffffffffffffffffffffffff021916908373ffffffffffffffffffffffffffffffffffffffff1602179055508173ffffffffffffffffffffffffffffffffffffffff168173ffffffffffffffffffffffffffffffffffffffff167f8be0079c531659141344cd1fd0a4f28419497f9722a3daafe3b4186f6b6457e060405160405180910390a35050565b60008183611dc491906139e8565b905092915050565b8173ffffffffffffffffffffffffffffffffffffffff168373ffffffffffffffffffffffffffffffffffffffff161415611e3b576040517f08c379a0000000000000000000000000000000000000000000000000000000008152600401611e32906135d8565b60405180910390fd5b80600560008573ffffffffffffffffffffffffffffffffffffffff1673ffffffffffffffffffffffffffffffffffffffff16815260200190815260200160002060008473ffffffffffffffffffffffffffffffffffffffff1673ffffffffffffffffffffffffffffffffffffffff16815260200190815260200160002060006101000a81548160ff0219169083151502179055508173ffffffffffffffffffffffffffffffffffffffff168373ffffffffffffffffffffffffffffffffffffffff167f17307eab39ab6107e8899845ad3d59bd9653f200f220920489ca2b5937696c3183604051611f2c91906134db565b60405180910390a3505050565b611f44848484611a89565b611f508484848461238b565b611f8f576040517f08c379a0000000000000000000000000000000000000000000000000000000008152600401611f8690613538565b60405180910390fd5b50505050565b6060600c8054611fa490613b2c565b80601f0160208091040260200160405190810160405280929190818152602001828054611fd090613b2c565b801561201d5780601f10611ff25761010080835404028352916020019161201d565b820191906000526020600020905b81548152906001019060200180831161200057829003601f168201915b5050505050905090565b6060600082141561206f576040518060400160405280600181526020017f300000000000000000000000000000000000000000000000000000000000000081525090506121cf565b600082905060005b600082146120a157808061208a90613b8f565b915050600a8261209a91906139b7565b9150612077565b60008167ffffffffffffffff8111156120e3577f4e487b7100000000000000000000000000000000000000000000000000000000600052604160045260246000fd5b6040519080825280601f01601f1916602001820160405280156121155781602001600182028036833780820191505090505b5090505b600085146121c85760018261212e9190613a42565b9150600a8561213d9190613bd8565b60306121499190613961565b60f81b818381518110612185577f4e487b7100000000000000000000000000000000000000000000000000000000600052603260045260246000fd5b60200101907effffffffffffffffffffffffffffffffffffffffffffffffffffffffffffff1916908160001a905350600a856121c191906139b7565b9450612119565b8093505050505b919050565b60007f01ffc9a7000000000000000000000000000000000000000000000000000000007bffffffffffffffffffffffffffffffffffffffffffffffffffffffff1916827bffffffffffffffffffffffffffffffffffffffffffffffffffffffff1916149050919050565b612258828260405180602001604052806000815250612522565b5050565b6001816000016000828254019250508190555050565b61227d83838361257d565b600073ffffffffffffffffffffffffffffffffffffffff168373ffffffffffffffffffffffffffffffffffffffff1614156122c0576122bb81612582565b6122ff565b8173ffffffffffffffffffffffffffffffffffffffff168373ffffffffffffffffffffffffffffffffffffffff16146122fe576122fd83826125cb565b5b5b600073ffffffffffffffffffffffffffffffffffffffff168273ffffffffffffffffffffffffffffffffffffffff1614156123425761233d81612738565b612381565b8273ffffffffffffffffffffffffffffffffffffffff168273ffffffffffffffffffffffffffffffffffffffff16146123805761237f828261287b565b5b5b505050565b505050565b60006123ac8473ffffffffffffffffffffffffffffffffffffffff166128fa565b15612515578373ffffffffffffffffffffffffffffffffffffffff1663150b7a026123d56118a1565b8786866040518563ffffffff1660e01b81526004016123f7949392919061346d565b602060405180830381600087803b15801561241157600080fd5b505af192505050801561244257506040513d601f19601f8201168201806040525081019061243f9190612ea3565b60015b6124c5573d8060008114612472576040519150601f19603f3d011682016040523d82523d6000602084013e612477565b606091505b506000815114156124bd576040517f08c379a00000000000000000000000000000000000000000000000000000000081526004016124b490613538565b60405180910390fd5b805181602001fd5b63150b7a0260e01b7bffffffffffffffffffffffffffffffffffffffffffffffffffffffff1916817bffffffffffffffffffffffffffffffffffffffffffffffffffffffff19161491505061251a565b600190505b949350505050565b61252c838361291d565b612539600084848461238b565b612578576040517f08c379a000000000000000000000000000000000000000000000000000000000815260040161256f90613538565b60405180910390fd5b505050565b505050565b6008805490506009600083815260200190815260200160002081905550600881908060018154018082558091505060019003906000526020600020016000909190919091505550565b600060016125d884610f27565b6125e29190613a42565b90506000600760008481526020019081526020016000205490508181146126c7576000600660008673ffffffffffffffffffffffffffffffffffffffff1673ffffffffffffffffffffffffffffffffffffffff168152602001908152602001600020600084815260200190815260200160002054905080600660008773ffffffffffffffffffffffffffffffffffffffff1673ffffffffffffffffffffffffffffffffffffffff168152602001908152602001600020600084815260200190815260200160002081905550816007600083815260200190815260200160002081905550505b6007600084815260200190815260200160002060009055600660008573ffffffffffffffffffffffffffffffffffffffff1673ffffffffffffffffffffffffffffffffffffffff16815260200190815260200160002060008381526020019081526020016000206000905550505050565b6000600160088054905061274c9190613a42565b90506000600960008481526020019081526020016000205490506000600883815481106127a2577f4e487b7100000000000000000000000000000000000000000000000000000000600052603260045260246000fd5b9060005260206000200154905080600883815481106127ea577f4e487b7100000000000000000000000000000000000000000000000000000000600052603260045260246000fd5b90600052602060002001819055508160096000838152602001908152602001600020819055506009600085815260200190815260200160002060009055600880548061285f577f4e487b7100000000000000000000000000000000000000000000000000000000600052603160045260246000fd5b6001900381819060005260206000200160009055905550505050565b600061288683610f27565b905081600660008573ffffffffffffffffffffffffffffffffffffffff1673ffffffffffffffffffffffffffffffffffffffff168152602001908152602001600020600083815260200190815260200160002081905550806007600084815260200190815260200160002081905550505050565b6000808273ffffffffffffffffffffffffffffffffffffffff163b119050919050565b600073ffffffffffffffffffffffffffffffffffffffff168273ffffffffffffffffffffffffffffffffffffffff16141561298d576040517f08c379a0000000000000000000000000000000000000000000000000000000008152600401612984906136d8565b60405180910390fd5b61299681611835565b156129d6576040517f08c379a00000000000000000000000000000000000000000000000000000000081526004016129cd90613598565b60405180910390fd5b6129e260008383612272565b6001600360008473ffffffffffffffffffffffffffffffffffffffff1673ffffffffffffffffffffffffffffffffffffffff1681526020019081526020016000206000828254612a329190613961565b92505081905550816002600083815260200190815260200160002060006101000a81548173ffffffffffffffffffffffffffffffffffffffff021916908373ffffffffffffffffffffffffffffffffffffffff160217905550808273ffffffffffffffffffffffffffffffffffffffff16600073ffffffffffffffffffffffffffffffffffffffff167fddf252ad1be2c89b69c2b068fc378daa952ba7f163c4a11628f55a4df523b3ef60405160405180910390a4612af360008383612386565b5050565b828054612b0390613b2c565b90600052602060002090601f016020900481019282612b255760008555612b6c565b82601f10612b3e57805160ff1916838001178555612b6c565b82800160010185558215612b6c579182015b82811115612b6b578251825591602001919060010190612b50565b5b509050612b799190612b7d565b5090565b5b80821115612b96576000816000905550600101612b7e565b5090565b6000612bad612ba884613878565b613853565b905082815260208101848484011115612bc557600080fd5b612bd0848285613aea565b509392505050565b6000612beb612be6846138a9565b613853565b905082815260208101848484011115612c0357600080fd5b612c0e848285613aea565b509392505050565b600081359050612c258161433a565b92915050565b600081359050612c3a81614351565b92915050565b600081359050612c4f81614368565b92915050565b600081519050612c6481614368565b92915050565b600082601f830112612c7b57600080fd5b8135612c8b848260208601612b9a565b91505092915050565b600082601f830112612ca557600080fd5b8135612cb5848260208601612bd8565b91505092915050565b600081359050612ccd8161437f565b92915050565b600060208284031215612ce557600080fd5b6000612cf384828501612c16565b91505092915050565b60008060408385031215612d0f57600080fd5b6000612d1d85828601612c16565b9250506020612d2e85828601612c16565b9150509250929050565b600080600060608486031215612d4d57600080fd5b6000612d5b86828701612c16565b9350506020612d6c86828701612c16565b9250506040612d7d86828701612cbe565b9150509250925092565b60008060008060808587031215612d9d57600080fd5b6000612dab87828801612c16565b9450506020612dbc87828801612c16565b9350506040612dcd87828801612cbe565b925050606085013567ffffffffffffffff811115612dea57600080fd5b612df687828801612c6a565b91505092959194509250565b60008060408385031215612e1557600080fd5b6000612e2385828601612c16565b9250506020612e3485828601612c2b565b9150509250929050565b60008060408385031215612e5157600080fd5b6000612e5f85828601612c16565b9250506020612e7085828601612cbe565b9150509250929050565b600060208284031215612e8c57600080fd5b6000612e9a84828501612c40565b91505092915050565b600060208284031215612eb557600080fd5b6000612ec384828501612c55565b91505092915050565b600060208284031215612ede57600080fd5b600082013567ffffffffffffffff811115612ef857600080fd5b612f0484828501612c94565b91505092915050565b600060208284031215612f1f57600080fd5b6000612f2d84828501612cbe565b91505092915050565b6000612f4283836133fb565b60208301905092915050565b612f5781613a76565b82525050565b6000612f68826138ea565b612f728185613918565b9350612f7d836138da565b8060005b83811015612fae578151612f958882612f36565b9750612fa08361390b565b925050600181019050612f81565b5085935050505092915050565b612fc481613a88565b82525050565b6000612fd5826138f5565b612fdf8185613929565b9350612fef818560208601613af9565b612ff881613cc5565b840191505092915050565b600061300e82613900565b6130188185613945565b9350613028818560208601613af9565b61303181613cc5565b840191505092915050565b600061304782613900565b6130518185613956565b9350613061818560208601613af9565b80840191505092915050565b600061307a602b83613945565b915061308582613cd6565b604082019050919050565b600061309d603283613945565b91506130a882613d25565b604082019050919050565b60006130c0602683613945565b91506130cb82613d74565b604082019050919050565b60006130e3602583613945565b91506130ee82613dc3565b604082019050919050565b6000613106601c83613945565b915061311182613e12565b602082019050919050565b6000613129602483613945565b915061313482613e3b565b604082019050919050565b600061314c601983613945565b915061315782613e8a565b602082019050919050565b600061316f602283613945565b915061317a82613eb3565b604082019050919050565b6000613192601583613945565b915061319d82613f02565b602082019050919050565b60006131b5602c83613945565b91506131c082613f2b565b604082019050919050565b60006131d8603883613945565b91506131e382613f7a565b604082019050919050565b60006131fb602a83613945565b915061320682613fc9565b604082019050919050565b600061321e602983613945565b915061322982614018565b604082019050919050565b6000613241600f83613945565b915061324c82614067565b602082019050919050565b6000613264602083613945565b915061326f82614090565b602082019050919050565b6000613287601983613945565b9150613292826140b9565b602082019050919050565b60006132aa602c83613945565b91506132b5826140e2565b604082019050919050565b60006132cd602083613945565b91506132d882614131565b602082019050919050565b60006132f0602f83613945565b91506132fb8261415a565b604082019050919050565b6000613313601b83613945565b915061331e826141a9565b602082019050919050565b6000613336602283613945565b9150613341826141d2565b604082019050919050565b6000613359602183613945565b915061336482614221565b604082019050919050565b600061337c60008361393a565b915061338782614270565b600082019050919050565b600061339f601083613945565b91506133aa82614273565b602082019050919050565b60006133c2603183613945565b91506133cd8261429c565b604082019050919050565b60006133e5602c83613945565b91506133f0826142eb565b604082019050919050565b61340481613ae0565b82525050565b61341381613ae0565b82525050565b6000613425828561303c565b9150613431828461303c565b91508190509392505050565b60006134488261336f565b9150819050919050565b60006020820190506134676000830184612f4e565b92915050565b60006080820190506134826000830187612f4e565b61348f6020830186612f4e565b61349c604083018561340a565b81810360608301526134ae8184612fca565b905095945050505050565b600060208201905081810360008301526134d38184612f5d565b905092915050565b60006020820190506134f06000830184612fbb565b92915050565b600060208201905081810360008301526135108184613003565b905092915050565b600060208201905081810360008301526135318161306d565b9050919050565b6000602082019050818103600083015261355181613090565b9050919050565b60006020820190508181036000830152613571816130b3565b9050919050565b60006020820190508181036000830152613591816130d6565b9050919050565b600060208201905081810360008301526135b1816130f9565b9050919050565b600060208201905081810360008301526135d18161311c565b9050919050565b600060208201905081810360008301526135f18161313f565b9050919050565b6000602082019050818103600083015261361181613162565b9050919050565b6000602082019050818103600083015261363181613185565b9050919050565b60006020820190508181036000830152613651816131a8565b9050919050565b60006020820190508181036000830152613671816131cb565b9050919050565b60006020820190508181036000830152613691816131ee565b9050919050565b600060208201905081810360008301526136b181613211565b9050919050565b600060208201905081810360008301526136d181613234565b9050919050565b600060208201905081810360008301526136f181613257565b9050919050565b600060208201905081810360008301526137118161327a565b9050919050565b600060208201905081810360008301526137318161329d565b9050919050565b60006020820190508181036000830152613751816132c0565b9050919050565b60006020820190508181036000830152613771816132e3565b9050919050565b6000602082019050818103600083015261379181613306565b9050919050565b600060208201905081810360008301526137b181613329565b9050919050565b600060208201905081810360008301526137d18161334c565b9050919050565b600060208201905081810360008301526137f181613392565b9050919050565b60006020820190508181036000830152613811816133b5565b9050919050565b60006020820190508181036000830152613831816133d8565b9050919050565b600060208201905061384d600083018461340a565b92915050565b600061385d61386e565b90506138698282613b5e565b919050565b6000604051905090565b600067ffffffffffffffff82111561389357613892613c96565b5b61389c82613cc5565b9050602081019050919050565b600067ffffffffffffffff8211156138c4576138c3613c96565b5b6138cd82613cc5565b9050602081019050919050565b6000819050602082019050919050565b600081519050919050565b600081519050919050565b600081519050919050565b6000602082019050919050565b600082825260208201905092915050565b600082825260208201905092915050565b600081905092915050565b600082825260208201905092915050565b600081905092915050565b600061396c82613ae0565b915061397783613ae0565b9250827fffffffffffffffffffffffffffffffffffffffffffffffffffffffffffffffff038211156139ac576139ab613c09565b5b828201905092915050565b60006139c282613ae0565b91506139cd83613ae0565b9250826139dd576139dc613c38565b5b828204905092915050565b60006139f382613ae0565b91506139fe83613ae0565b9250817fffffffffffffffffffffffffffffffffffffffffffffffffffffffffffffffff0483118215151615613a3757613a36613c09565b5b828202905092915050565b6000613a4d82613ae0565b9150613a5883613ae0565b925082821015613a6b57613a6a613c09565b5b828203905092915050565b6000613a8182613ac0565b9050919050565b60008115159050919050565b60007fffffffff0000000000000000000000000000000000000000000000000000000082169050919050565b600073ffffffffffffffffffffffffffffffffffffffff82169050919050565b6000819050919050565b82818337600083830152505050565b60005b83811015613b17578082015181840152602081019050613afc565b83811115613b26576000848401525b50505050565b60006002820490506001821680613b4457607f821691505b60208210811415613b5857613b57613c67565b5b50919050565b613b6782613cc5565b810181811067ffffffffffffffff82111715613b8657613b85613c96565b5b80604052505050565b6000613b9a82613ae0565b91507fffffffffffffffffffffffffffffffffffffffffffffffffffffffffffffffff821415613bcd57613bcc613c09565b5b600182019050919050565b6000613be382613ae0565b9150613bee83613ae0565b925082613bfe57613bfd613c38565b5b828206905092915050565b7f4e487b7100000000000000000000000000000000000000000000000000000000600052601160045260246000fd5b7f4e487b7100000000000000000000000000000000000000000000000000000000600052601260045260246000fd5b7f4e487b7100000000000000000000000000000000000000000000000000000000600052602260045260246000fd5b7f4e487b7100000000000000000000000000000000000000000000000000000000600052604160045260246000fd5b6000601f19601f8301169050919050565b7f455243373231456e756d657261626c653a206f776e657220696e646578206f7560008201527f74206f6620626f756e6473000000000000000000000000000000000000000000602082015250565b7f4552433732313a207472616e7366657220746f206e6f6e20455243373231526560008201527f63656976657220696d706c656d656e7465720000000000000000000000000000602082015250565b7f4f776e61626c653a206e6577206f776e657220697320746865207a65726f206160008201527f6464726573730000000000000000000000000000000000000000000000000000602082015250565b7f4552433732313a207472616e736665722066726f6d20696e636f72726563742060008201527f6f776e6572000000000000000000000000000000000000000000000000000000602082015250565b7f4552433732313a20746f6b656e20616c7265616479206d696e74656400000000600082015250565b7f4552433732313a207472616e7366657220746f20746865207a65726f2061646460008201527f7265737300000000000000000000000000000000000000000000000000000000602082015250565b7f4552433732313a20617070726f766520746f2063616c6c657200000000000000600082015250565b7f4e6f7420656e6f75676820657468657220746f207075726368617365204e465460008201527f732e000000000000000000000000000000000000000000000000000000000000602082015250565b7f4e6f7420656e6f756768204e465473206c656674210000000000000000000000600082015250565b7f4552433732313a206f70657261746f7220717565727920666f72206e6f6e657860008201527f697374656e7420746f6b656e0000000000000000000000000000000000000000602082015250565b7f4552433732313a20617070726f76652063616c6c6572206973206e6f74206f7760008201527f6e6572206e6f7220617070726f76656420666f7220616c6c0000000000000000602082015250565b7f4552433732313a2062616c616e636520717565727920666f7220746865207a6560008201527f726f206164647265737300000000000000000000000000000000000000000000602082015250565b7f4552433732313a206f776e657220717565727920666f72206e6f6e657869737460008201527f656e7420746f6b656e0000000000000000000000000000000000000000000000602082015250565b7f4e6f7420656e6f756768204e4654730000000000000000000000000000000000600082015250565b7f4552433732313a206d696e7420746f20746865207a65726f2061646472657373600082015250565b7f4e6f206574686572206c65667420746f20776974686472617700000000000000600082015250565b7f4552433732313a20617070726f76656420717565727920666f72206e6f6e657860008201527f697374656e7420746f6b656e0000000000000000000000000000000000000000602082015250565b7f4f776e61626c653a2063616c6c6572206973206e6f7420746865206f776e6572600082015250565b7f4552433732314d657461646174613a2055524920717565727920666f72206e6f60008201527f6e6578697374656e7420746f6b656e0000000000000000000000000000000000602082015250565b7f4e6f7420656e6f7567682046726565204d696e7473206c656674210000000000600082015250565b7f45786365656473206d6178206d696e747320706572207472616e73616374696f60008201527f6e2e000000000000000000000000000000000000000000000000000000000000602082015250565b7f4552433732313a20617070726f76616c20746f2063757272656e74206f776e6560008201527f7200000000000000000000000000000000000000000000000000000000000000602082015250565b50565b7f5472616e73666572206661696c65642e00000000000000000000000000000000600082015250565b7f4552433732313a207472616e736665722063616c6c6572206973206e6f74206f60008201527f776e6572206e6f7220617070726f766564000000000000000000000000000000602082015250565b7f455243373231456e756d657261626c653a20676c6f62616c20696e646578206f60008201527f7574206f6620626f756e64730000000000000000000000000000000000000000602082015250565b61434381613a76565b811461434e57600080fd5b50565b61435a81613a88565b811461436557600080fd5b50565b61437181613a94565b811461437c57600080fd5b50565b61438881613ae0565b811461439357600080fd5b5056fea26469706673582212207f569626ca2c47067493ff4c45e77f993bf6d10b01efd4fa2c4bc176e020de4664736f6c63430008040033",
  "linkReferences": {},
  "deployedLinkReferences": {}
}